:100000000C945E000C9486000C9486000C94860080
:100010000C9486000C9486000C9486000C94860048
:100020000C9486000C9486000C9486000C947E053B
:100030000C9486000C9486000C9486000C94860028
:100040000C94DC040C9486000C944C050C9426054E
:100050000C9486000C9486000C9486000C94860008
:100060000C9486000C948600000000080002010039
:100070000003040700000000000000000000000072
:10008000250028002B0000000000240027002A0083
:10009000040404040404040402020202020203032E
:1000A0000303030301020408102040800102040836
:1000B00010200102040810203F06AA0911241FBEC7
:1000C000CFEFD8E0DEBFCDBF11E0A0E0B1E0E8EDBA
:1000D000F8E102C005900D92A035B107D9F722E0F2
:1000E000A0E5B1E001C01D92A133B207E1F710E035
:1000F000CDE5D0E004C02197FE010E94540ACC3522
:10010000D107C9F70E94A2060C945F0C0C94000062
:10011000CF92DF92EF92FF92DC01A03282E0B8072B
:100120000CF03EC0B7FD06C0A53BB1052CF0A4EB1A
:10013000B0E002C0A0E0B0E080912B0228E830E0FF
:100140006901C81AD10887FDD394CC0CDD1CCC0CF6
:10015000DD1C0D2C000CEE08FF0880912C0228E518
:1001600032E0281B310987FD3395220F331F220F00
:10017000331FA901330F660B770B9A01AB012C19C2
:100180003D094E095F090E94D80924EB30E040E0A8
:1001900050E00E94AE09C20ED31EE41EF51ED60129
:1001A00090912A029C3098F580912B0248E850E00B
:1001B000481B510987FD5395440F551F440F551F88
:1001C000A417B5078CF080912C0228E532E0281B9B
:1001D000310987FD3395220F331F220F331FAD01E5
:1001E0002A173B070CF4A90142505109440F551F2F
:1001F0002FB7F894892F90E0FC01EE0FFF1F8E0FB0
:100200009F1FFC01E150FE4F528341832FBFFF909F
:10021000EF90DF90CF90089590E0FC01EC55FF4FF8
:100220002491FC01E057FF4F8491882399F090E0DE
:10023000880F991FFC01EA57FF4FA591B491FC016B
:10024000E458FF4F859194918FB7F894EC91E22B8D
:10025000EC938FBF089590E0FC01E859FF4F249183
:10026000FC01EC55FF4F3491FC01E057FF4FE49146
:10027000EE2309F43CC0222339F1233091F038F405
:100280002130A9F0223001F584B58F7D12C02730CE
:1002900091F02830A1F02430B9F4809180008F7D56
:1002A00003C0809180008F77809380000DC084B55B
:1002B0008F7784BD09C08091B0008F7703C0809193
:1002C000B0008F7D8093B000F0E0EE0FFF1FE45888
:1002D000FF4FA591B4919FB7F894611104C08C9120
:1002E0003095382302C0EC913E2B3C939FBF08957C
:1002F0001F93CF93DF93182FEB010E940C012097DF
:1003000011F460E004C0CF3FD10539F461E0812FE2
:10031000DF91CF911F910C942B01E12FF0E0E85970
:10032000FF4FE491E330F9F048F4E130B9F0E23006
:10033000A1F584B5806284BDC8BD34C0E730E9F062
:10034000E83019F1E43049F58091800080628093B3
:100350008000D0938B00C0938A0024C084B580684D
:1003600084BDC7BD1FC080918000806880938000DD
:10037000D0938900C093880015C08091B000806838
:100380008093B000C093B3000DC08091B000806234
:100390008093B000C093B40005C0C038D1050CF004
:1003A000B5CFAFCFDF91CF911F9108958E3008F078
:1003B0008E508770806480937C0080917A00806486
:1003C00080937A0080917A0086FDFCCF809178003E
:1003D0002091790090E0922B08953FB7F894809196
:1003E0005E0190915F01A0916001B091610126B51D
:1003F000A89B05C02F3F19F00196A11DB11D3FBF5D
:10040000BA2FA92F982F8827820F911DA11DB11DEA
:10041000BC01CD0142E0660F771F881F991F4A95E6
:10042000D1F708958F929F92AF92BF92CF92DF92B1
:10043000EF92FF926B017C010E94ED014B015C0188
:10044000C114D104E104F104F1F00E94ED01DC01DA
:10045000CB0188199909AA09BB09883E9340A105D7
:10046000B10570F321E0C21AD108E108F10888EE65
:10047000880E83E0981EA11CB11CC114D104E104B4
:10048000F10419F7DDCFFF90EF90DF90CF90BF9090
:10049000AF909F908F900895CF92DF92EF92FF924E
:1004A0000F931F93CF93DF936C017A018B01C0E010
:1004B000D0E0CE15DF0581F0D8016D918D01D60118
:1004C000ED91FC910190F081E02DC6010995892BF9
:1004D00011F02196EECF7E01C701DF91CF911F91E0
:1004E0000F91FF90EF90DF90CF900895089580E0F6
:1004F00090E00895FC01538D448D252F30E0842F2A
:1005000090E0821B930B541710F0CF96089501973B
:100510000895FC01918D828D981761F0828DDF0125
:10052000A80FB11D5D968C91928D9F5F9F73928FE6
:1005300090E008958FEF9FEF0895FC01918D828DDB
:10054000981731F0828DE80FF11D858D90E00895A8
:100550008FEF9FEF0895FC01918D228D892F90E000
:10056000805C9F4F821B91098F739927089582E6C3
:1005700091E00E94AB0221E0892B09F420E0822F58
:100580000895FC01848DDF01A80FB11DA35ABF4F50
:100590002C91848D90E001968F739927848FA68982
:1005A000B7892C93A089B1898C91837080648C93D6
:1005B000938D848D981306C00288F389E02D808185
:1005C0008F7D80830895EF92FF920F931F93CF93B7
:1005D000DF93EC0181E0888F9B8D8C8D981305C093
:1005E000E889F989808185FD26C0F62E0B8D10E003
:1005F0000F5F1F4F0F731127E02E8C8DE8120CC078
:100600000FB607FCFACFE889F989808185FFF5CF1D
:10061000CE010E94C102F1CF8B8DFE01E80FF11DCA
:10062000E35AFF4FF0829FB7F8940B8FEA89FB895A
:10063000808180620AC09FB7F894EE89FF89608349
:10064000E889F98980818370806480839FBF81E01D
:1006500090E0DF91CF911F910F91FF90EF9008955F
:10066000CF93DF93EC01888D8823C9F0EA89FB8959
:10067000808185FD05C0A889B9898C9186FD0FC050
:100680000FB607FCF5CF808185FFF2CFA889B98925
:100690008C9185FFEDCFCE010E94C102E7CFDF91A3
:1006A000CF91089580E090E0892B29F00E94B70255
:1006B00081110C9400000895009769F0FC010190ED
:1006C0000020E9F73197AF01481B590BBC0182E6C6
:1006D00091E00C944C0280E090E008958F929F92FC
:1006E000AF92BF920F931F93CF93DF93CDB7DEB737
:1006F000A1970FB6F894DEBF0FBECDBF19A242304E
:1007000008F44AE08E010F5D1F4F842E912CA12C1E
:10071000B12CA50194010E94170AE62FB901CA0164
:1007200001501109EA3014F4E05D01C0E95CD80120
:10073000EC93232B242B252B61F7C8010E945C032B
:10074000A1960FB6F894DEBF0FBECDBFDF91CF915B
:100750001F910F91BF90AF909F908F900895CF926F
:10076000DF92EF92FF92CF93DF936B017C016DE2FA
:1007700082E691E00E94E302EC0166277727CB0135
:100780006C197D098E099F094AE00E946E038C0F47
:100790009D1FDF91CF91FF90EF90DF90CF90089554
:1007A000BC01990F880B990B97FD0C94AF034AE09D
:1007B0000C946E03FC01808191810C94F20AFC017F
:1007C00024813581FB01448155812417350721F5AA
:1007D000FC0180819181FB0160817181009719F09A
:1007E00061157105A1F46115710549F0232BB1F074
:1007F000FB01808190E09195819591090AC0009755
:1008000069F0232B59F0FC01808190E002C00E9426
:100810004F0C21E0892B19F020E001C021E0822F4C
:1008200008950E94410C0F931F93CF93DF93EC0127
:1008300088819981009729F02A813B812617370703
:1008400088F48B016F5F7F4F0E947B0B009761F0F4
:10085000998388831B830A832C813D81232B11F488
:10086000FC01108281E001C080E0DF91CF911F91F7
:100870000F910895EF92FF920F931F93CF93DF9301
:10088000EC017B018A01BA010E941304288139819D
:1008900081110DC02115310519F0C9010E94F20A1C
:1008A000198218821D821C821B821A8206C01D8337
:1008B0000C83B701C9010E94580CCE01DF91CF9182
:1008C0001F910F91FF90EF900895FC01118210820B
:1008D00013821282158214826115710551F0FB0199
:1008E00001900020E9F73197AF01461B570B0C949C
:1008F0003A040895CF92DF92EF92FF920F931F93E5
:10090000CF93DF936C01EB01E0902802F090290275
:10091000E616F70620F48D2FE701E62EF82E6EE49A
:1009200071E0C6010E94650400912802109129021D
:10093000C017D107B8F5E016F10608F48701E09179
:100940002402F0912502E00FF11FF08010826091E7
:100950002402709125026C0F7D1F6115710561F0F5
:10096000FB0101900020E9F73197AF01461B570BBF
:10097000C6010E943A040EC0F60180819181009761
:1009800011F00E94F20AF60111821082158214827F
:10099000138212828091240290912502FC01E00FC3
:1009A000F11FF082C601DF91CF911F910F91FF904F
:1009B000EF90DF90CF9008951F920F920FB60F9295
:1009C00011242F933F938F939F93AF93BF93809165
:1009D0005A0190915B01A0915C01B0915D01309151
:1009E000590123E0230F2D3720F40196A11DB11DDD
:1009F00005C026E8230F0296A11DB11D20935901C1
:100A000080935A0190935B01A0935C01B0935D01C8
:100A100080915E0190915F01A0916001B0916101B0
:100A20000196A11DB11D80935E0190935F01A0937B
:100A30006001B0936101BF91AF919F918F913F9100
:100A40002F910F900FBE0F901F9018951F920F922D
:100A50000FB60F9211242F933F934F935F936F9391
:100A60007F938F939F93AF93BF93EF93FF9382E610
:100A700091E00E94C102FF91EF91BF91AF919F91D0
:100A80008F917F916F915F914F913F912F910F9037
:100A90000FBE0F901F9018951F920F920FB60F92D6
:100AA00011242F938F939F93EF93FF93E091720103
:100AB000F09173018081E0917801F091790182FDDC
:100AC00012C0908180917B018F5F8F7320917C0198
:100AD000821751F0E0917B01F0E0EE59FE4F958FC7
:100AE00080937B0101C08081FF91EF919F918F9155
:100AF0002F910F900FBE0F901F9018951F920F927D
:100B00000FB60F9211242F933F934F935F936F93E0
:100B10007F938F939F93AF93BF93EF93FF938091B6
:100B2000500187FF05C010928500109284001BC001
:100B300020915001022E000C330B8091230290E093
:100B40002817390784F480915001082E000C990B66
:100B5000FC01EE0FFF1F8E0F9F1FFC01E150FE4FA7
:100B6000808186FD15C0809150018F5F8093500178
:100B700020915001022E000C330B8091230290E053
:100B800028173907C4F4809150018C3064F113C0E8
:100B900080915001082E000C990BFC01EE0FFF1FF5
:100BA0008E0F9F1FFC01E150FE4F808160E08F732C
:100BB0000E942B01D8CF80918400909185000496EB
:100BC00080349C4918F480E49CE905C0809184003D
:100BD00090918500049690938900809388008FEF10
:100BE000809350013BC0209184003091850080911A
:100BF0005001082E000C990BFC01EE0FFF1F8E0F09
:100C00009F1FFC01E150FE4F81819281820F931F53
:100C1000909389008093880080915001082E000CE9
:100C2000990BFC01EE0FFF1F8E0F9F1FFC01E1507F
:100C3000FE4F808186FF12C080915001082E000C6B
:100C4000990BFC01EE0FFF1F8E0F9F1FFC01E1505F
:100C5000FE4F808161E08F730E942B01FF91EF9125
:100C6000BF91AF919F918F917F916F915F914F91C4
:100C70003F912F910F900FBE0F901F9018951092DB
:100C800065011092640188EE93E0A0E0B0E08093EB
:100C9000660190936701A0936801B09369018AE0AF
:100CA00091E0909363018093620185EC90E09093D2
:100CB0006F0180936E0184EC90E0909371018093BA
:100CC000700180EC90E0909373018093720181EC4D
:100CD00090E0909375018093740182EC90E0909382
:100CE00077018093760186EC90E090937901809370
:100CF000780110927B0110927C0110927D0110927C
:100D00007E01809123028C30A0F491E0980F9093A3
:100D1000230280932A0290E0FC01EE0FFF1F8E0F4A
:100D20009F1FFC01E150FE4F88EB9BE09283818383
:100D300003C08FEF80932A0268E171E084E292E0C1
:100D40000C946504CF93DF93CDB7DEB72C970FB625
:100D5000F894DEBF0FBECDBF789484B5826084BDA9
:100D600084B5816084BD85B5826085BD85B58160AF
:100D700085BD80916E00816080936E00109281002D
:100D800080918100826080938100809181008160E8
:100D900080938100809180008160809380008091A9
:100DA000B10084608093B1008091B0008160809335
:100DB000B00080917A00846080937A0080917A00FC
:100DC000826080937A0080917A00816080937A00BB
:100DD00080917A00806880937A001092C100E0913F
:100DE0007201F091730182E08083E0916E01F091D5
:100DF0006F011082E0917001F09171018FEC80839E
:100E000010927A01E0917601F091770186E080837B
:100E1000E0917401F0917501808180618083E0919F
:100E20007401F0917501808188608083E091740184
:100E3000F0917501808180688083E0917401F09168
:100E4000750180818F7D808386E00E940C0187E0A0
:100E50000E940C0188E00E940C0189E00E940C01B4
:100E60008AE00E940C018BE00E940C018DE00E9440
:100E70000C0183E00E940C0180912A028C3008F062
:100E800050C082E00E940C0180912A02E82FF0E01D
:100E90009F01220F331FE20FF31FE150FE4F90819D
:100EA000907C9260908310922B0210922C026CE046
:100EB0000E94480A9CE0899FB001112440E050E064
:100EC0009B01240F351FF901EE0FFF1F2E0F3F1F4F
:100ED000F901E150FE4F908196FD16C04F5F5F4FC4
:100EE0004C30510569F781110FC01092800082E0EB
:100EF000809381001092850010928400B19A8091B5
:100F00006F00826080936F00E0912A02F0E0CF01D1
:100F1000880F991FE80FF91FE150FE4F8081806410
:100F2000808360ED77E080E090E00E9412028AE525
:100F300090E00E94880068E873E180E090E00E9401
:100F4000120261E083E00E942B0140E050E06EE479
:100F500071E084E292E00E943A0482E691E00E940D
:100F6000AB02181619067CF582E691E00E94890210
:100F700089831A8200912802109129020F5F1F4F66
:100F8000B80184E292E00E941304882399F0209132
:100F90002402309125028091280290912902BE01FD
:100FA0006F5F7F4F820F931F0E94580C109329028E
:100FB00000932802809157019091580101969093D7
:100FC00058018093570164E271E0CE0101960E94BE
:100FD0006504609128027091290261507109CE0167
:100FE00007960E947A04BE016F5F7F4FCE0107967D
:100FF0000E94DF03182FCE0107960E94DA03CE016C
:1010000001960E94DA03112351F061E083E00E940F
:101010002B0164E670E080E090E00E94120266E23C
:1010200071E0CE0101960E946504609128027091E2
:10103000290261507109CE0107960E947A04BE010F
:101040006F5F7F4FCE0107960E94DF03182FCE01FE
:1010500007960E94DA03CE0101960E94DA0311235B
:1010600051F060E083E00E942B0164E670E080E0D4
:1010700090E00E94120268E271E0CE0101960E94A7
:101080006504609128027091290261507109CE01B6
:1010900007960E947A04BE016F5F7F4FCE010796CC
:1010A0000E94DF03182FCE0107960E94DA03CE01BB
:1010B00001960E94DA03112301F161E087E00E94AA
:1010C0002B0160E088E00E942B0168EC70E086E074
:1010D0000E94780160E089E00E942B0161E08AE0D3
:1010E0000E942B0168EC70E08BE00E94780164E6BE
:1010F00070E080E090E00E9412026AE271E0CE01AE
:1011000001960E9465046091280270912902615045
:101110007109CE0107960E947A04BE016F5F7F4F6E
:10112000CE0107960E94DF03182FCE0107960E947A
:10113000DA03CE0101960E94DA03112301F160E087
:1011400087E00E942B0161E088E00E942B0168EC9F
:1011500070E086E00E94780161E089E00E942B0146
:1011600060E08AE00E942B0168EC70E08BE00E9456
:10117000780164E670E080E090E00E9412026CE288
:1011800071E0CE0101960E94650460912802709181
:10119000290261507109CE0107960E947A04BE01AE
:1011A0006F5F7F4FCE0107960E94DF03182FCE019D
:1011B00007960E94DA03CE0101960E94DA031123FA
:1011C00051F08AE590E00E9488006FE070E080E0D6
:1011D00090E00E9412026EE271E0CE0101960E9440
:1011E0006504609128027091290261507109CE0155
:1011F00007960E947A04BE016F5F7F4FCE0107966B
:101200000E94DF03182FCE0107960E94DA03CE0159
:1012100001960E94DA03112351F080E090E00E94D1
:1012200088006FE070E080E090E00E94120260E3CE
:1012300071E0CE0101960E946504609128027091D0
:10124000290261507109CE0107960E947A04BE01FD
:101250006F5F7F4FCE0107960E94DF03182FCE01EC
:1012600007960E94DA03CE0101960E94DA03112349
:1012700051F060E070E086E00E94780160E070E08C
:101280008BE00E94780162E371E0CE0101960E943A
:101290006504609128027091290261507109CE01A4
:1012A00007960E947A04BE016F5F7F4FCE010796BA
:1012B0000E94DF03182FCE0107960E94DA03CE01A9
:1012C00001960E94DA03112309F441C08EE00E94C6
:1012D000D60190935601809355018FE00E94D6016C
:1012E000909354018093530180E10E94D601909322
:1012F00052018093510184E391E00E945C0380914C
:101300005301909154010E94D0038BE391E00E941D
:101310005C0380915101909152010E94D00384E4BA
:1013200091E00E945C036091550170915601072E77
:10133000000C880B990B97FF03C00E94AF0303C0FA
:101340004AE00E946E038CE491E00E945C030E94DC
:10135000520303CE84E292E00C94DA03052E97FB4D
:101360001EF400940E94C50957FD07D00E94170A79
:1013700007FC03D04EF40C94C50950954095309568
:1013800021953F4F4F4F5F4F0895909580957095F1
:1013900061957F4F8F4F9F4F08950E94390AA59FF7
:1013A000900DB49F900DA49F800D911D1124089560
:1013B000B7FF0C94CD090E94CD09821B930B0895B1
:1013C0002F923F924F925F926F927F928F929F9255
:1013D000AF92BF92CF92DF92EF92FF920F931F9343
:1013E000CF93DF93CDB7DEB7CA1BDB0B0FB6F894F4
:1013F000DEBF0FBECDBF09942A88398848885F8434
:101400006E847D848C849B84AA84B984C884DF80A4
:10141000EE80FD800C811B81AA81B981CE0FD11D88
:101420000FB6F894DEBF0FBECDBFED010895A1E267
:101430001A2EAA1BBB1BFD010DC0AA1FBB1FEE1F4E
:10144000FF1FA217B307E407F50720F0A21BB30B99
:10145000E40BF50B661F771F881F991F1A9469F715
:1014600060957095809590959B01AC01BD01CF0171
:101470000895A29FB001B39FC001A39F700D811D6D
:101480001124911DB29F700D811D1124911D08958D
:10149000991B79E004C0991F961708F0961B881FC6
:1014A0007A95C9F780950895EE0FFF1F0590F49186
:1014B000E02D09940F931F93CF93DF938230910512
:1014C00010F482E090E0E0912F02F091300220E0F1
:1014D00030E0A0E0B0E0309719F140815181028105
:1014E000138148175907C8F08417950769F41097B6
:1014F00031F012960C93129713961C9327C0009309
:101500002F021093300222C02115310519F0421725
:10151000530718F49A01BD01EF01DF01F801DBCF99
:1015200021153105F9F0281B390B2430310580F4E1
:101530008A819B816115710521F0FB019383828370
:1015400004C09093300280932F02FE01329644C073
:10155000FE01E20FF31F81939193225031093983E9
:1015600028833AC020912D0230912E02232B41F482
:10157000209102013091030130932E0220932D021D
:1015800020910001309101012115310541F42DB761
:101590003EB74091040150910501241B350BE091A9
:1015A0002D02F0912E02E217F307A0F42E1B3F0B41
:1015B0002817390778F0AC014E5F5F4F24173507C5
:1015C00048F04E0F5F1F50932E0240932D028193DF
:1015D000919302C0E0E0F0E0CF01DF91CF911F9145
:1015E0000F910895CF93DF93009709F481C0FC0118
:1015F000329713821282A0912F02B091300210977D
:1016000081F420813181820F931F20912D0230912E
:101610002E022817390751F5F0932E02E0932D0280
:1016200067C0ED0120E030E0CE17DF0740F44A81CB
:101630005B819E0141155105F1F0EA01F5CFD3839D
:10164000C28340815181840F951FC817D90759F46F
:1016500088819981840F951F0296918380838A8166
:101660009B81938382832115310529F4F093300205
:10167000E0932F023DC0E901FB83EA834991599130
:10168000C40FD51FEC17FD0761F480819181840F91
:10169000951F0296E90199838883828193819B83B8
:1016A0008A83E0E0F0E012968D919C911397009769
:1016B00019F0FD01DC01F7CF8D919C9111979D01EF
:1016C0002E5F3F4F820F931F20912D0230912E02EB
:1016D0002817390769F4309729F4109230021092D4
:1016E0002F0202C013821282B0932E02A0932D0209
:1016F000DF91CF910895A0E0B0E0E1E8FBE00C9429
:10170000E409EC01009721F4CB010E945A0AB4C00D
:10171000FC01E60FF71F9C0122503109E217F30785
:1017200008F4A8C0D9010D911C911197061717074D
:10173000B0F00530110508F49BC0C8010497861766
:10174000970708F495C002501109061B170B019367
:1017500011936D937C93CF010E94F20A89C05B01C3
:10176000A01AB10A4C01800E911EA0912F02B091D7
:101770003002612C712CE12CF12C109709F446C039
:101780008D919C911197A815B905B1F56C0142E0B6
:10179000C40ED11CCA14DB0478F14C018A189B08D2
:1017A000640142E0C40ED11C1296BC9012971396AD
:1017B000AC91B5E0CB16D10440F0B282A383918204
:1017C0008082D9016D937C9309C00E5F1F4F800FFB
:1017D000911FF90191838083EB2DFA2FE114F1041D
:1017E00031F0D7011396FC93EE93129741C0F0931A
:1017F0003002E0932F023CC06816790608F43C01E1
:101800007D0112960D90BC91A02DB7CF80912D0235
:1018100090912E0288169906E1F466167706C8F4B0
:101820008091000190910101009741F48DB79EB71E
:101830004091040150910501841B950BE817F907AD
:10184000C8F4F0932E02E0932D02F90171836083B6
:101850000FC0CB010E945A0A7C01009759F0A801E1
:10186000BE010E94460CCE010E94F20AC70104C0CC
:10187000CE0102C080E090E0CDB7DEB7EEE00C9480
:10188000000A81E090E0F8940C945F0CFB01DC010D
:1018900002C001900D9241505040D8F70895FB01CD
:1018A000DC018D91019080190110D9F3990B0895F5
:1018B000FB01DC0101900D920020E1F7089510E09A
:1018C000CDE5D0E004C0FE010E94540A2196CE3539
:0818D000D107C9F7F894FFCF1E
:1018D80000003102800000000000E3024C027A029E
:1018E8003003AB0289029D02446F206E6F74204D55
:1018F8006F76650030003100610073006400660097
:10190800780077004C6566743A200043656E7472FF
:10191800653A200052696768743A20000D0A000091
:00000001FF
