S0150000636F6D6D756E69636174696F6E2E7372656399
S11300000C9434000C9451000C9451000C94510045
S11300100C9451000C9451000C9451000C94510018
S11300200C9451000C9451000C9451000C94510008
S11300300C9451000C9451000C9451000C945100F8
S11300400C9451000C9451000C9453000C948800AF
S11300500C9451000C9451000C9451000C945100D8
S11300600C9451000C94510011241FBECFEFD8E022
S1130070DEBFCDBF11E0A0E0B1E0E2E1F4E002C0F8
S113008005900D92A032B107D9F722E0A0E2B1E0C9
S113009001C01D92A832B207E1F70E949D010C94A1
S11300A007020C9400001F920F920FB60F921124B6
S11300B02F933F934F935F938F939F93EF93FF936C
S11300C02091C0003091C60028718091250190E0F4
S11300D001968F7799274091240150E08417950762
S11300E039F080932501FC01E85DFE4F308301C0A7
S11300F022E020932301FF91EF919F918F915F91D3
S11301004F913F912F910F900FBE0F901F90189514
S11301101F920F920FB60F9211248F939F93EF9318
S1130120FF939091270180912601981779F080918F
S1130130260190E001968F77992780932601FC0190
S1130140E855FE4F80818093C60005C0E1ECF0E0E5
S113015080818F7D8083FF91EF919F918F910F908C
S11301600FBE0F901F901895F894109227011092CB
S1130170260110922501109224017894992324F4E5
S113018022E02093C0009F779093C5008093C40021
S113019088E98093C10086E08093C2000895F894B2
S11301A09091250180912401981304C0789480E0F3
S11301B091E0089578948091240190E001968F77DE
S11301C0992780932401FC01E85DFE4F20818091F2
S11301D0230190E0982F8827820F911D0895409164
S11301E0270150E04F5F5F4F4F775527209126013D
S11301F030E042175307D1F3FA01E855FE4F8083EC
S113020040932701E1ECF0E08081806280830895CF
S1130210CF93DF93EC018881882331F021960E94EB
S1130220EF0089918111FBCFDF91CF910895F8946C
S11302308091240180932501789408950E94CF0031
S1130240911103C0882319F008958FEF08958FEF5B
S1130250089517B818B80895EAE7F0E0108280E22C
S113026080937C0080E880BF86E88083089587704F
S1130270806280937C00EAE7F0E080818064808380
S1130280808184FFFDCF80917900EAE7F0E09081DE
S11302909061908308951092890080938800109251
S11302A08B0060938A00089584B18F6084B985B10E
S11302B0807F85B98AB180638AB98BB180638BB939
S11302C008953B9A439808950E9429010E9454017D
S11302D00E946101089595B1907F8F70982B95B914
S11302E0089586E00E946B01089580E00E946B01EE
S11302F00895E1E8F0E010828FEF8093850091E0AB
S113030090938400109289008093880010928B004F
S113031080938A00109287008093860081EA8093FC
S113032080008DE080830895F8940E9464010E9407
S113033079010E942C01789408950E94940187E623
S113034090E00E94B4000E94170180E091E00E94B6
S11303500801C1E0D0E00E941E01883319F40E9414
S11303607501F9CF62E382E30E944B010E9471019F
S113037082E00E9437018093220184E00E943701C9
S11303808093210185E00E943701809320018091B0
S113039021018E3168F562E382E30E944B01809172
S11303A0220190E0C2974F9754F52C2F0AC063E2C4
S11303B082E30E944B0123C062E383E20E944B016B
S11303C02C2F809121018F3130F28091220190E015
S11303D0C2974F970CF4BFCF809120018F3108F45E
S11303E0BACF2111B8CF6D2F8D2F0E944B01B3CFFF
S11303F08091220190E0C2974F971CF0D8CF2C2F08
S1130400E0CF809120018F31B8F62D2FDACFF89408
S1050410FFCF18
S11304122A2A2A2041726475696E6F20556E6F20F4
S11304225541525430204543484F202A2A2A0A0073
S9030000FC
